{
  "address": "0xef213034db40d30ea2eb4ebc18a1fab278ba663b",
  "abi": [
    {
      "inputs": [
        {
          "internalType": "string",
          "name": "_name",
          "type": "string"
        },
        {
          "internalType": "string",
          "name": "_symbol",
          "type": "string"
        },
        {
          "internalType": "uint256",
          "name": "_totalSupply",
          "type": "uint256"
        },
        {
          "internalType": "string",
          "name": "_currentURI",
          "type": "string"
        }
      ],
      "stateMutability": "nonpayable",
      "type": "constructor"
    },
    {
      "anonymous": false,
      "inputs": [
        {
          "indexed": true,
          "internalType": "address",
          "name": "owner",
          "type": "address"
        },
        {
          "indexed": true,
          "internalType": "address",
          "name": "approved",
          "type": "address"
        },
        {
          "indexed": true,
          "internalType": "uint256",
          "name": "tokenId",
          "type": "uint256"
        }
      ],
      "name": "Approval",
      "type": "event"
    },
    {
      "anonymous": false,
      "inputs": [
        {
          "indexed": true,
          "internalType": "address",
          "name": "owner",
          "type": "address"
        },
        {
          "indexed": true,
          "internalType": "address",
          "name": "operator",
          "type": "address"
        },
        {
          "indexed": false,
          "internalType": "bool",
          "name": "approved",
          "type": "bool"
        }
      ],
      "name": "ApprovalForAll",
      "type": "event"
    },
    {
      "anonymous": false,
      "inputs": [
        {
          "indexed": true,
          "internalType": "address",
          "name": "previousOwner",
          "type": "address"
        },
        {
          "indexed": true,
          "internalType": "address",
          "name": "newOwner",
          "type": "address"
        }
      ],
      "name": "OwnershipTransferred",
      "type": "event"
    },
    {
      "anonymous": false,
      "inputs": [
        {
          "indexed": true,
          "internalType": "address",
          "name": "from",
          "type": "address"
        },
        {
          "indexed": true,
          "internalType": "address",
          "name": "to",
          "type": "address"
        },
        {
          "indexed": true,
          "internalType": "uint256",
          "name": "tokenId",
          "type": "uint256"
        }
      ],
      "name": "Transfer",
      "type": "event"
    },
    {
      "inputs": [
        {
          "internalType": "address",
          "name": "to",
          "type": "address"
        },
        {
          "internalType": "uint256",
          "name": "tokenId",
          "type": "uint256"
        }
      ],
      "name": "approve",
      "outputs": [],
      "stateMutability": "nonpayable",
      "type": "function"
    },
    {
      "inputs": [
        {
          "internalType": "address",
          "name": "owner",
          "type": "address"
        }
      ],
      "name": "balanceOf",
      "outputs": [
        {
          "internalType": "uint256",
          "name": "",
          "type": "uint256"
        }
      ],
      "stateMutability": "view",
      "type": "function"
    },
    {
      "inputs": [],
      "name": "currentURI",
      "outputs": [
        {
          "internalType": "string",
          "name": "",
          "type": "string"
        }
      ],
      "stateMutability": "view",
      "type": "function"
    },
    {
      "inputs": [
        {
          "internalType": "uint256",
          "name": "tokenId",
          "type": "uint256"
        }
      ],
      "name": "getApproved",
      "outputs": [
        {
          "internalType": "address",
          "name": "",
          "type": "address"
        }
      ],
      "stateMutability": "view",
      "type": "function"
    },
    {
      "inputs": [
        {
          "internalType": "address",
          "name": "owner",
          "type": "address"
        },
        {
          "internalType": "address",
          "name": "operator",
          "type": "address"
        }
      ],
      "name": "isApprovedForAll",
      "outputs": [
        {
          "internalType": "bool",
          "name": "",
          "type": "bool"
        }
      ],
      "stateMutability": "view",
      "type": "function"
    },
    {
      "inputs": [
        {
          "internalType": "address",
          "name": "",
          "type": "address"
        }
      ],
      "name": "isClaimed",
      "outputs": [
        {
          "internalType": "bool",
          "name": "",
          "type": "bool"
        }
      ],
      "stateMutability": "view",
      "type": "function"
    },
    {
      "inputs": [],
      "name": "isPaused",
      "outputs": [
        {
          "internalType": "bool",
          "name": "",
          "type": "bool"
        }
      ],
      "stateMutability": "view",
      "type": "function"
    },
    {
      "inputs": [],
      "name": "mintStep",
      "outputs": [
        {
          "internalType": "uint256",
          "name": "",
          "type": "uint256"
        }
      ],
      "stateMutability": "view",
      "type": "function"
    },
    {
      "inputs": [],
      "name": "name",
      "outputs": [
        {
          "internalType": "string",
          "name": "",
          "type": "string"
        }
      ],
      "stateMutability": "view",
      "type": "function"
    },
    {
      "inputs": [],
      "name": "nextMintId",
      "outputs": [
        {
          "internalType": "uint256",
          "name": "",
          "type": "uint256"
        }
      ],
      "stateMutability": "view",
      "type": "function"
    },
    {
      "inputs": [],
      "name": "owner",
      "outputs": [
        {
          "internalType": "address",
          "name": "",
          "type": "address"
        }
      ],
      "stateMutability": "view",
      "type": "function"
    },
    {
      "inputs": [
        {
          "internalType": "uint256",
          "name": "tokenId",
          "type": "uint256"
        }
      ],
      "name": "ownerOf",
      "outputs": [
        {
          "internalType": "address",
          "name": "",
          "type": "address"
        }
      ],
      "stateMutability": "view",
      "type": "function"
    },
    {
      "inputs": [
        {
          "internalType": "uint256",
          "name": "_mintCount",
          "type": "uint256"
        }
      ],
      "name": "pMint",
      "outputs": [
        {
          "internalType": "uint256",
          "name": "",
          "type": "uint256"
        }
      ],
      "stateMutability": "payable",
      "type": "function"
    },
    {
      "inputs": [],
      "name": "pMintPrice",
      "outputs": [
        {
          "internalType": "uint256",
          "name": "",
          "type": "uint256"
        }
      ],
      "stateMutability": "view",
      "type": "function"
    },
    {
      "inputs": [],
      "name": "renounceOwnership",
      "outputs": [],
      "stateMutability": "nonpayable",
      "type": "function"
    },
    {
      "inputs": [
        {
          "internalType": "address",
          "name": "from",
          "type": "address"
        },
        {
          "internalType": "address",
          "name": "to",
          "type": "address"
        },
        {
          "internalType": "uint256",
          "name": "tokenId",
          "type": "uint256"
        }
      ],
      "name": "safeTransferFrom",
      "outputs": [],
      "stateMutability": "nonpayable",
      "type": "function"
    },
    {
      "inputs": [
        {
          "internalType": "address",
          "name": "from",
          "type": "address"
        },
        {
          "internalType": "address",
          "name": "to",
          "type": "address"
        },
        {
          "internalType": "uint256",
          "name": "tokenId",
          "type": "uint256"
        },
        {
          "internalType": "bytes",
          "name": "_data",
          "type": "bytes"
        }
      ],
      "name": "safeTransferFrom",
      "outputs": [],
      "stateMutability": "nonpayable",
      "type": "function"
    },
    {
      "inputs": [
        {
          "internalType": "address",
          "name": "operator",
          "type": "address"
        },
        {
          "internalType": "bool",
          "name": "approved",
          "type": "bool"
        }
      ],
      "name": "setApprovalForAll",
      "outputs": [],
      "stateMutability": "nonpayable",
      "type": "function"
    },
    {
      "inputs": [
        {
          "internalType": "string",
          "name": "_currentURI",
          "type": "string"
        }
      ],
      "name": "setCurrentURI",
      "outputs": [],
      "stateMutability": "nonpayable",
      "type": "function"
    },
    {
      "inputs": [
        {
          "internalType": "uint256",
          "name": "_mintStep",
          "type": "uint256"
        }
      ],
      "name": "setMintStep",
      "outputs": [],
      "stateMutability": "nonpayable",
      "type": "function"
    },
    {
      "inputs": [
        {
          "internalType": "uint256",
          "name": "_price",
          "type": "uint256"
        }
      ],
      "name": "setPMintPrice",
      "outputs": [],
      "stateMutability": "nonpayable",
      "type": "function"
    },
    {
      "inputs": [
        {
          "internalType": "bool",
          "name": "_isPaused",
          "type": "bool"
        }
      ],
      "name": "setPaused",
      "outputs": [],
      "stateMutability": "nonpayable",
      "type": "function"
    },
    {
      "inputs": [
        {
          "internalType": "uint256",
          "name": "_totalSupply",
          "type": "uint256"
        }
      ],
      "name": "setTotalSupply",
      "outputs": [],
      "stateMutability": "nonpayable",
      "type": "function"
    },
    {
      "inputs": [
        {
          "internalType": "bytes32",
          "name": "merkleRoot",
          "type": "bytes32"
        }
      ],
      "name": "setWLMerkleRoot",
      "outputs": [],
      "stateMutability": "nonpayable",
      "type": "function"
    },
    {
      "inputs": [
        {
          "internalType": "uint256",
          "name": "_price",
          "type": "uint256"
        }
      ],
      "name": "setWLMintPrice",
      "outputs": [],
      "stateMutability": "nonpayable",
      "type": "function"
    },
    {
      "inputs": [
        {
          "internalType": "bytes4",
          "name": "interfaceId",
          "type": "bytes4"
        }
      ],
      "name": "supportsInterface",
      "outputs": [
        {
          "internalType": "bool",
          "name": "",
          "type": "bool"
        }
      ],
      "stateMutability": "view",
      "type": "function"
    },
    {
      "inputs": [],
      "name": "symbol",
      "outputs": [
        {
          "internalType": "string",
          "name": "",
          "type": "string"
        }
      ],
      "stateMutability": "view",
      "type": "function"
    },
    {
      "inputs": [
        {
          "internalType": "uint256",
          "name": "tokenId",
          "type": "uint256"
        }
      ],
      "name": "tokenURI",
      "outputs": [
        {
          "internalType": "string",
          "name": "",
          "type": "string"
        }
      ],
      "stateMutability": "view",
      "type": "function"
    },
    {
      "inputs": [],
      "name": "totalSupply",
      "outputs": [
        {
          "internalType": "uint256",
          "name": "",
          "type": "uint256"
        }
      ],
      "stateMutability": "view",
      "type": "function"
    },
    {
      "inputs": [
        {
          "internalType": "address",
          "name": "from",
          "type": "address"
        },
        {
          "internalType": "address",
          "name": "to",
          "type": "address"
        },
        {
          "internalType": "uint256",
          "name": "tokenId",
          "type": "uint256"
        }
      ],
      "name": "transferFrom",
      "outputs": [],
      "stateMutability": "nonpayable",
      "type": "function"
    },
    {
      "inputs": [
        {
          "internalType": "address",
          "name": "newOwner",
          "type": "address"
        }
      ],
      "name": "transferOwnership",
      "outputs": [],
      "stateMutability": "nonpayable",
      "type": "function"
    },
    {
      "inputs": [],
      "name": "withdraw",
      "outputs": [],
      "stateMutability": "nonpayable",
      "type": "function"
    },
    {
      "inputs": [],
      "name": "wlMerkleRoot",
      "outputs": [
        {
          "internalType": "bytes32",
          "name": "",
          "type": "bytes32"
        }
      ],
      "stateMutability": "view",
      "type": "function"
    },
    {
      "inputs": [
        {
          "internalType": "bytes32[]",
          "name": "_merkleProof",
          "type": "bytes32[]"
        }
      ],
      "name": "wlMint",
      "outputs": [
        {
          "internalType": "uint256",
          "name": "",
          "type": "uint256"
        }
      ],
      "stateMutability": "payable",
      "type": "function"
    },
    {
      "inputs": [],
      "name": "wlMintPrice",
      "outputs": [
        {
          "internalType": "uint256",
          "name": "",
          "type": "uint256"
        }
      ],
      "stateMutability": "view",
      "type": "function"
    }
  ],
  "transactionHash": "0xe4e00c7e9cec63241604f78938060f60da3b8a9db31bb54ac792b3cefc5d4dbe",
  "args": [
    "PulseChainArt NFT",
    "PulseNFT",
    10000,
    "https://ipfs.io/ipfs/"
  ],
  "numDeployments": 1,
  "solcInputHash": "262c33fcc43a3075aa3baac3f0ba0641",
  "bytecode": "0x6000600955666a94d74f430000600a5566b1a2bc2ec50000600b5560c0604052601560808190527f68747470733a2f2f697066732e696f2f697066732f000000000000000000000060a09081526200005b91600c919062000191565b506101f4600e55612710600f556010805460ff191660011790553480156200008257600080fd5b5060405162002ca038038062002ca0833981016040819052620000a59162000304565b835184908490620000be90600090602085019062000191565b508051620000d490600190602084019062000191565b505050620000f1620000eb6200012260201b60201c565b62000126565b6001600855620001018162000178565b6200010b82600f55565b6010805460ff1916600117905550505050620003dc565b3390565b600780546001600160a01b038381166001600160a01b0319831681179093556040519116919082907f8be0079c531659141344cd1fd0a4f28419497f9722a3daafe3b4186f6b6457e090600090a35050565b80516200018d90600c90602084019062000191565b5050565b8280546200019f906200039f565b90600052602060002090601f016020900481019282620001c357600085556200020e565b82601f10620001de57805160ff19168380011785556200020e565b828001600101855582156200020e579182015b828111156200020e578251825591602001919060010190620001f1565b506200021c92915062000220565b5090565b5b808211156200021c576000815560010162000221565b634e487b7160e01b600052604160045260246000fd5b600082601f8301126200025f57600080fd5b81516001600160401b03808211156200027c576200027c62000237565b604051601f8301601f19908116603f01168101908282118183101715620002a757620002a762000237565b81604052838152602092508683858801011115620002c457600080fd5b600091505b83821015620002e85785820183015181830184015290820190620002c9565b83821115620002fa5760008385830101525b9695505050505050565b600080600080608085870312156200031b57600080fd5b84516001600160401b03808211156200033357600080fd5b62000341888389016200024d565b955060208701519150808211156200035857600080fd5b62000366888389016200024d565b94506040870151935060608701519150808211156200038457600080fd5b5062000393878288016200024d565b91505092959194509250565b600181811c90821680620003b457607f821691505b60208210811415620003d657634e487b7160e01b600052602260045260246000fd5b50919050565b6128b480620003ec6000396000f3fe6080604052600436106102345760003560e01c80637d44fd1111610138578063b187bd26116100b0578063e1e62b021161007f578063f2fde38b11610064578063f2fde38b14610632578063f7ea7a3d14610652578063fb0bc9d71461067257600080fd5b8063e1e62b02146105c9578063e985e9c5146105e957600080fd5b8063b187bd261461054f578063b473171614610569578063b88d4fde14610589578063c87b56dd146105a957600080fd5b80638faeb78f116101075780639ccbcaac116100ec5780639ccbcaac14610506578063a22cb4651461051c578063b0ea7dcf1461053c57600080fd5b80638faeb78f146104db57806395d89b41146104f157600080fd5b80637d44fd111461044d578063894b344c1461046d5780638cc080251461048d5780638da5cb5b146104bd57600080fd5b80632c4e9fc6116101cb5780636352211e1161019a57806370a082311161017f57806370a0823114610405578063710ea3dd14610425578063715018a61461043857600080fd5b80636352211e146103cf5780636aa99da3146103ef57600080fd5b80632c4e9fc61461036e5780633ccfd60b1461038457806342842e0e1461039957806354c06aee146103b957600080fd5b80630a99ea98116102075780630a99ea98146102ea57806316c38b3c1461030a57806318160ddd1461032a57806323b872dd1461034e57600080fd5b806301ffc9a71461023957806306fdde031461026e578063081812fc14610290578063095ea7b3146102c8575b600080fd5b34801561024557600080fd5b506102596102543660046122a2565b610687565b60405190151581526020015b60405180910390f35b34801561027a57600080fd5b506102836106d9565b6040516102659190612317565b34801561029c57600080fd5b506102b06102ab36600461232a565b61076b565b6040516001600160a01b039091168152602001610265565b3480156102d457600080fd5b506102e86102e336600461235f565b610805565b005b3480156102f657600080fd5b506102e861030536600461232a565b61091b565b34801561031657600080fd5b506102e8610325366004612399565b610968565b34801561033657600080fd5b50610340600f5481565b604051908152602001610265565b34801561035a57600080fd5b506102e86103693660046123b4565b6109c4565b34801561037a57600080fd5b50610340600a5481565b34801561039057600080fd5b506102e8610a4b565b3480156103a557600080fd5b506102e86103b43660046123b4565b610ac6565b3480156103c557600080fd5b50610340600d5481565b3480156103db57600080fd5b506102b06103ea36600461232a565b610ae1565b3480156103fb57600080fd5b5061034060095481565b34801561041157600080fd5b506103406104203660046123f0565b610b6c565b61034061043336600461232a565b610c06565b34801561044457600080fd5b506102e8610d73565b34801561045957600080fd5b506102e861046836600461232a565b610dc7565b34801561047957600080fd5b506102e861048836600461232a565b610e14565b34801561049957600080fd5b506102596104a83660046123f0565b60116020526000908152604090205460ff1681565b3480156104c957600080fd5b506007546001600160a01b03166102b0565b3480156104e757600080fd5b50610340600e5481565b3480156104fd57600080fd5b50610283610e65565b34801561051257600080fd5b50610340600b5481565b34801561052857600080fd5b506102e861053736600461240b565b610e74565b61034061054a36600461243e565b610e7f565b34801561055b57600080fd5b506010546102599060ff1681565b34801561057557600080fd5b506102e861058436600461253f565b6110f5565b34801561059557600080fd5b506102e86105a4366004612588565b611146565b3480156105b557600080fd5b506102836105c436600461232a565b6111d4565b3480156105d557600080fd5b506102e86105e436600461232a565b611367565b3480156105f557600080fd5b50610259610604366004612604565b6001600160a01b03918216600090815260056020908152604080832093909416825291909152205460ff1690565b34801561063e57600080fd5b506102e861064d3660046123f0565b6113b4565b34801561065e57600080fd5b506102e861066d36600461232a565b611481565b34801561067e57600080fd5b506102836114d2565b60006001600160e01b031982166380ac58cd60e01b14806106b857506001600160e01b03198216635b5e139f60e01b145b806106d357506301ffc9a760e01b6001600160e01b03198316145b92915050565b6060600080546106e89061262e565b80601f01602080910402602001604051908101604052809291908181526020018280546107149061262e565b80156107615780601f1061073657610100808354040283529160200191610761565b820191906000526020600020905b81548152906001019060200180831161074457829003601f168201915b5050505050905090565b6000818152600260205260408120546001600160a01b03166107e95760405162461bcd60e51b815260206004820152602c60248201527f4552433732313a20617070726f76656420717565727920666f72206e6f6e657860448201526b34b9ba32b73a103a37b5b2b760a11b60648201526084015b60405180910390fd5b506000908152600460205260409020546001600160a01b031690565b600061081082610ae1565b9050806001600160a01b0316836001600160a01b0316141561087e5760405162461bcd60e51b815260206004820152602160248201527f4552433732313a20617070726f76616c20746f2063757272656e74206f776e656044820152603960f91b60648201526084016107e0565b336001600160a01b038216148061089a575061089a8133610604565b61090c5760405162461bcd60e51b815260206004820152603860248201527f4552433732313a20617070726f76652063616c6c6572206973206e6f74206f7760448201527f6e6572206e6f7220617070726f76656420666f7220616c6c000000000000000060648201526084016107e0565b6109168383611560565b505050565b6007546001600160a01b031633146109635760405162461bcd60e51b8152602060048201819052602482015260008051602061288883398151915260448201526064016107e0565b600b55565b6007546001600160a01b031633146109b05760405162461bcd60e51b8152602060048201819052602482015260008051602061288883398151915260448201526064016107e0565b6010805460ff191682151517905550565b50565b6109ce33826115ce565b610a405760405162461bcd60e51b815260206004820152603160248201527f4552433732313a207472616e736665722063616c6c6572206973206e6f74206f60448201527f776e6572206e6f7220617070726f76656400000000000000000000000000000060648201526084016107e0565b6109168383836116c4565b6007546001600160a01b03163314610a935760405162461bcd60e51b8152602060048201819052602482015260008051602061288883398151915260448201526064016107e0565b6040514790339082156108fc029083906000818181858888f19350505050158015610ac2573d6000803e3d6000fd5b5050565b61091683838360405180602001604052806000815250611146565b6000818152600260205260408120546001600160a01b0316806106d35760405162461bcd60e51b815260206004820152602960248201527f4552433732313a206f776e657220717565727920666f72206e6f6e657869737460448201527f656e7420746f6b656e000000000000000000000000000000000000000000000060648201526084016107e0565b60006001600160a01b038216610bea5760405162461bcd60e51b815260206004820152602a60248201527f4552433732313a2062616c616e636520717565727920666f7220746865207a6560448201527f726f20616464726573730000000000000000000000000000000000000000000060648201526084016107e0565b506001600160a01b031660009081526003602052604090205490565b60105460009060ff1615610c8d5760405162461bcd60e51b815260206004820152604260248201527f4572726f723a20596f7520617265206e6f7420616c6c6f77656420746f206d6960448201527f6e7420756e74696c20746865206f776e657220737461727473204d696e74696e606482015261672160f01b608482015260a4016107e0565b600b548234610c9c828461267f565b1115610cf65760405162461bcd60e51b815260206004820152602360248201527f4572726f723a2053656e74204554482076616c756520697320494e434f52524560448201526243542160e81b60648201526084016107e0565b60026008541415610d495760405162461bcd60e51b815260206004820152601f60248201527f5265656e7472616e637947756172643a207265656e7472616e742063616c6c0060448201526064016107e0565b6002600855610d5784611878565b6001600954610d66919061269e565b6001600855949350505050565b6007546001600160a01b03163314610dbb5760405162461bcd60e51b8152602060048201819052602482015260008051602061288883398151915260448201526064016107e0565b610dc560006119df565b565b6007546001600160a01b03163314610e0f5760405162461bcd60e51b8152602060048201819052602482015260008051602061288883398151915260448201526064016107e0565b600d55565b6007546001600160a01b03163314610e5c5760405162461bcd60e51b8152602060048201819052602482015260008051602061288883398151915260448201526064016107e0565b6109c181600e55565b6060600180546106e89061262e565b610ac2338383611a31565b60105460009060ff1615610f065760405162461bcd60e51b815260206004820152604260248201527f4572726f723a20596f7520617265206e6f7420616c6c6f77656420746f206d6960448201527f6e7420756e74696c20746865206f776e657220737461727473204d696e74696e606482015261672160f01b608482015260a4016107e0565b600a54600134610f16828461267f565b1115610f705760405162461bcd60e51b815260206004820152602360248201527f4572726f723a2053656e74204554482076616c756520697320494e434f52524560448201526243542160e81b60648201526084016107e0565b8484610fe782828080602002602001604051908101604052809392919081815260200183836020028082843760009201919091525050600d546040516bffffffffffffffffffffffff193360601b166020820152909250603401905060405160208183030381529060405280519060200120611b00565b6110595760405162461bcd60e51b815260206004820152602660248201527f4572726f723a2041646472657373206973204e4f542077686974656c6973746560448201527f642079657421000000000000000000000000000000000000000000000000000060648201526084016107e0565b600260085414156110ac5760405162461bcd60e51b815260206004820152601f60248201527f5265656e7472616e637947756172643a207265656e7472616e742063616c6c0060448201526064016107e0565b60026008556110bb6001611878565b336000908152601160205260409020805460ff191660019081179091556009546110e5919061269e565b6001600855979650505050505050565b6007546001600160a01b0316331461113d5760405162461bcd60e51b8152602060048201819052602482015260008051602061288883398151915260448201526064016107e0565b6109c181611b16565b61115033836115ce565b6111c25760405162461bcd60e51b815260206004820152603160248201527f4552433732313a207472616e736665722063616c6c6572206973206e6f74206f60448201527f776e6572206e6f7220617070726f76656400000000000000000000000000000060648201526084016107e0565b6111ce84848484611b29565b50505050565b6000818152600260205260409020546060906001600160a01b03166112615760405162461bcd60e51b815260206004820152603160248201527f45524337323155524953746f726167653a2055524920717565727920666f722060448201527f6e6f6e6578697374656e7420746f6b656e00000000000000000000000000000060648201526084016107e0565b6000828152600660205260408120805461127a9061262e565b80601f01602080910402602001604051908101604052809291908181526020018280546112a69061262e565b80156112f35780601f106112c8576101008083540402835291602001916112f3565b820191906000526020600020905b8154815290600101906020018083116112d657829003601f168201915b50505050509050600061131160408051602081019091526000815290565b9050805160001415611324575092915050565b81511561135657808260405160200161133e9291906126d1565b60405160208183030381529060405292505050919050565b61135f84611ba7565b949350505050565b6007546001600160a01b031633146113af5760405162461bcd60e51b8152602060048201819052602482015260008051602061288883398151915260448201526064016107e0565b600a55565b6007546001600160a01b031633146113fc5760405162461bcd60e51b8152602060048201819052602482015260008051602061288883398151915260448201526064016107e0565b6001600160a01b0381166114785760405162461bcd60e51b815260206004820152602660248201527f4f776e61626c653a206e6577206f776e657220697320746865207a65726f206160448201527f646472657373000000000000000000000000000000000000000000000000000060648201526084016107e0565b6109c1816119df565b6007546001600160a01b031633146114c95760405162461bcd60e51b8152602060048201819052602482015260008051602061288883398151915260448201526064016107e0565b6109c181600f55565b600c80546114df9061262e565b80601f016020809104026020016040519081016040528092919081815260200182805461150b9061262e565b80156115585780601f1061152d57610100808354040283529160200191611558565b820191906000526020600020905b81548152906001019060200180831161153b57829003601f168201915b505050505081565b600081815260046020526040902080546001600160a01b0319166001600160a01b038416908117909155819061159582610ae1565b6001600160a01b03167f8c5be1e5ebec7d5bd14f71427d1e84f3dd0314c0f7b2291e5b200ac8c7c3b92560405160405180910390a45050565b6000818152600260205260408120546001600160a01b03166116475760405162461bcd60e51b815260206004820152602c60248201527f4552433732313a206f70657261746f7220717565727920666f72206e6f6e657860448201526b34b9ba32b73a103a37b5b2b760a11b60648201526084016107e0565b600061165283610ae1565b9050806001600160a01b0316846001600160a01b0316148061169957506001600160a01b0380821660009081526005602090815260408083209388168352929052205460ff165b8061135f5750836001600160a01b03166116b28461076b565b6001600160a01b031614949350505050565b826001600160a01b03166116d782610ae1565b6001600160a01b0316146117535760405162461bcd60e51b815260206004820152602560248201527f4552433732313a207472616e736665722066726f6d20696e636f72726563742060448201527f6f776e657200000000000000000000000000000000000000000000000000000060648201526084016107e0565b6001600160a01b0382166117b55760405162461bcd60e51b8152602060048201526024808201527f4552433732313a207472616e7366657220746f20746865207a65726f206164646044820152637265737360e01b60648201526084016107e0565b6117c0600082611560565b6001600160a01b03831660009081526003602052604081208054600192906117e990849061269e565b90915550506001600160a01b0382166000908152600360205260408120805460019290611817908490612700565b909155505060008181526002602052604080822080546001600160a01b0319166001600160a01b0386811691821790925591518493918716917fddf252ad1be2c89b69c2b068fc378daa952ba7f163c4a11628f55a4df523b3ef91a4505050565b600f5460018260095461188b9190612700565b611895919061269e565b106118e25760405162461bcd60e51b815260206004820152601660248201527f4572726f723a20537570706c79206c696d69746564210000000000000000000060448201526064016107e0565b60105460ff16156119355760405162461bcd60e51b815260206004820152601860248201527f4572726f723a204d696e74696e6720697320506175736564000000000000000060448201526064016107e0565b60005b818110156119aa5760095461194d3382611c9d565b61198181600c61195c84611cb7565b60405160200161196d929190612718565b604051602081830303815290604052611dcd565b60098054906000611991836127bf565b91905055505080806119a2906127bf565b915050611938565b50600f5460095414806119ca5750600e546009546119c891906127f0565b155b156109c1576010805460ff1916600117905550565b600780546001600160a01b038381166001600160a01b0319831681179093556040519116919082907f8be0079c531659141344cd1fd0a4f28419497f9722a3daafe3b4186f6b6457e090600090a35050565b816001600160a01b0316836001600160a01b03161415611a935760405162461bcd60e51b815260206004820152601960248201527f4552433732313a20617070726f766520746f2063616c6c65720000000000000060448201526064016107e0565b6001600160a01b03838116600081815260056020908152604080832094871680845294825291829020805460ff191686151590811790915591519182527f17307eab39ab6107e8899845ad3d59bd9653f200f220920489ca2b5937696c31910160405180910390a3505050565b600082611b0d8584611e76565b14949350505050565b8051610ac290600c9060208401906121f3565b611b348484846116c4565b611b4084848484611eea565b6111ce5760405162461bcd60e51b815260206004820152603260248201527f4552433732313a207472616e7366657220746f206e6f6e20455243373231526560448201527131b2b4bb32b91034b6b83632b6b2b73a32b960711b60648201526084016107e0565b6000818152600260205260409020546060906001600160a01b0316611c345760405162461bcd60e51b815260206004820152602f60248201527f4552433732314d657461646174613a2055524920717565727920666f72206e6f60448201527f6e6578697374656e7420746f6b656e000000000000000000000000000000000060648201526084016107e0565b6000611c4b60408051602081019091526000815290565b90506000815111611c6b5760405180602001604052806000815250611c96565b80611c7584611cb7565b604051602001611c869291906126d1565b6040516020818303038152906040525b9392505050565b610ac2828260405180602001604052806000815250612033565b606081611cdb5750506040805180820190915260018152600360fc1b602082015290565b8160005b8115611d055780611cef816127bf565b9150611cfe9050600a83612804565b9150611cdf565b60008167ffffffffffffffff811115611d2057611d206124b3565b6040519080825280601f01601f191660200182016040528015611d4a576020820181803683370190505b5090505b841561135f57611d5f60018361269e565b9150611d6c600a866127f0565b611d77906030612700565b60f81b818381518110611d8c57611d8c612818565b60200101907effffffffffffffffffffffffffffffffffffffffffffffffffffffffffffff1916908160001a905350611dc6600a86612804565b9450611d4e565b6000828152600260205260409020546001600160a01b0316611e575760405162461bcd60e51b815260206004820152602e60248201527f45524337323155524953746f726167653a2055524920736574206f66206e6f6e60448201527f6578697374656e7420746f6b656e00000000000000000000000000000000000060648201526084016107e0565b60008281526006602090815260409091208251610916928401906121f3565b600081815b8451811015611ee2576000858281518110611e9857611e98612818565b60200260200101519050808311611ebe5760008381526020829052604090209250611ecf565b600081815260208490526040902092505b5080611eda816127bf565b915050611e7b565b509392505050565b60006001600160a01b0384163b1561202857604051630a85bd0160e11b81526001600160a01b0385169063150b7a0290611f2e90339089908890889060040161282e565b6020604051808303816000875af1925050508015611f69575060408051601f3d908101601f19168201909252611f669181019061286a565b60015b61200e573d808015611f97576040519150601f19603f3d011682016040523d82523d6000602084013e611f9c565b606091505b5080516120065760405162461bcd60e51b815260206004820152603260248201527f4552433732313a207472616e7366657220746f206e6f6e20455243373231526560448201527131b2b4bb32b91034b6b83632b6b2b73a32b960711b60648201526084016107e0565b805181602001fd5b6001600160e01b031916630a85bd0160e11b14905061135f565b506001949350505050565b61203d83836120b1565b61204a6000848484611eea565b6109165760405162461bcd60e51b815260206004820152603260248201527f4552433732313a207472616e7366657220746f206e6f6e20455243373231526560448201527131b2b4bb32b91034b6b83632b6b2b73a32b960711b60648201526084016107e0565b6001600160a01b0382166121075760405162461bcd60e51b815260206004820181905260248201527f4552433732313a206d696e7420746f20746865207a65726f206164647265737360448201526064016107e0565b6000818152600260205260409020546001600160a01b03161561216c5760405162461bcd60e51b815260206004820152601c60248201527f4552433732313a20746f6b656e20616c7265616479206d696e7465640000000060448201526064016107e0565b6001600160a01b0382166000908152600360205260408120805460019290612195908490612700565b909155505060008181526002602052604080822080546001600160a01b0319166001600160a01b03861690811790915590518392907fddf252ad1be2c89b69c2b068fc378daa952ba7f163c4a11628f55a4df523b3ef908290a45050565b8280546121ff9061262e565b90600052602060002090601f0160209004810192826122215760008555612267565b82601f1061223a57805160ff1916838001178555612267565b82800160010185558215612267579182015b8281111561226757825182559160200191906001019061224c565b50612273929150612277565b5090565b5b808211156122735760008155600101612278565b6001600160e01b0319811681146109c157600080fd5b6000602082840312156122b457600080fd5b8135611c968161228c565b60005b838110156122da5781810151838201526020016122c2565b838111156111ce5750506000910152565b600081518084526123038160208601602086016122bf565b601f01601f19169290920160200192915050565b602081526000611c9660208301846122eb565b60006020828403121561233c57600080fd5b5035919050565b80356001600160a01b038116811461235a57600080fd5b919050565b6000806040838503121561237257600080fd5b61237b83612343565b946020939093013593505050565b8035801515811461235a57600080fd5b6000602082840312156123ab57600080fd5b611c9682612389565b6000806000606084860312156123c957600080fd5b6123d284612343565b92506123e060208501612343565b9150604084013590509250925092565b60006020828403121561240257600080fd5b611c9682612343565b6000806040838503121561241e57600080fd5b61242783612343565b915061243560208401612389565b90509250929050565b6000806020838503121561245157600080fd5b823567ffffffffffffffff8082111561246957600080fd5b818501915085601f83011261247d57600080fd5b81358181111561248c57600080fd5b8660208260051b85010111156124a157600080fd5b60209290920196919550909350505050565b634e487b7160e01b600052604160045260246000fd5b600067ffffffffffffffff808411156124e4576124e46124b3565b604051601f8501601f19908116603f0116810190828211818310171561250c5761250c6124b3565b8160405280935085815286868601111561252557600080fd5b858560208301376000602087830101525050509392505050565b60006020828403121561255157600080fd5b813567ffffffffffffffff81111561256857600080fd5b8201601f8101841361257957600080fd5b61135f848235602084016124c9565b6000806000806080858703121561259e57600080fd5b6125a785612343565b93506125b560208601612343565b925060408501359150606085013567ffffffffffffffff8111156125d857600080fd5b8501601f810187136125e957600080fd5b6125f8878235602084016124c9565b91505092959194509250565b6000806040838503121561261757600080fd5b61262083612343565b915061243560208401612343565b600181811c9082168061264257607f821691505b6020821081141561266357634e487b7160e01b600052602260045260246000fd5b50919050565b634e487b7160e01b600052601160045260246000fd5b600081600019048311821515161561269957612699612669565b500290565b6000828210156126b0576126b0612669565b500390565b600081516126c78185602086016122bf565b9290920192915050565b600083516126e38184602088016122bf565b8351908301906126f78183602088016122bf565b01949350505050565b6000821982111561271357612713612669565b500190565b600080845481600182811c91508083168061273457607f831692505b602080841082141561275457634e487b7160e01b86526022600452602486fd5b8180156127685760018114612779576127a6565b60ff198616895284890196506127a6565b60008b81526020902060005b8681101561279e5781548b820152908501908301612785565b505084890196505b5050505050506127b681856126b5565b95945050505050565b60006000198214156127d3576127d3612669565b5060010190565b634e487b7160e01b600052601260045260246000fd5b6000826127ff576127ff6127da565b500690565b600082612813576128136127da565b500490565b634e487b7160e01b600052603260045260246000fd5b60006001600160a01b0380871683528086166020840152508360408301526080606083015261286060808301846122eb565b9695505050505050565b60006020828403121561287c57600080fd5b8151611c968161228c56fe4f776e61626c653a2063616c6c6572206973206e6f7420746865206f776e6572a164736f6c634300080a000a",
  "devdoc": {
    "kind": "dev",
    "methods": {
      "approve(address,uint256)": {
        "details": "See {IERC721-approve}."
      },
      "balanceOf(address)": {
        "details": "See {IERC721-balanceOf}."
      },
      "getApproved(uint256)": {
        "details": "See {IERC721-getApproved}."
      },
      "isApprovedForAll(address,address)": {
        "details": "See {IERC721-isApprovedForAll}."
      },
      "name()": {
        "details": "See {IERC721Metadata-name}."
      },
      "owner()": {
        "details": "Returns the address of the current owner."
      },
      "ownerOf(uint256)": {
        "details": "See {IERC721-ownerOf}."
      },
      "renounceOwnership()": {
        "details": "Leaves the contract without owner. It will not be possible to call `onlyOwner` functions anymore. Can only be called by the current owner. NOTE: Renouncing ownership will leave the contract without an owner, thereby removing any functionality that is only available to the owner."
      },
      "safeTransferFrom(address,address,uint256)": {
        "details": "See {IERC721-safeTransferFrom}."
      },
      "safeTransferFrom(address,address,uint256,bytes)": {
        "details": "See {IERC721-safeTransferFrom}."
      },
      "setApprovalForAll(address,bool)": {
        "details": "See {IERC721-setApprovalForAll}."
      },
      "supportsInterface(bytes4)": {
        "details": "See {IERC165-supportsInterface}."
      },
      "symbol()": {
        "details": "See {IERC721Metadata-symbol}."
      },
      "tokenURI(uint256)": {
        "details": "See {IERC721Metadata-tokenURI}."
      },
      "transferFrom(address,address,uint256)": {
        "details": "See {IERC721-transferFrom}."
      },
      "transferOwnership(address)": {
        "details": "Transfers ownership of the contract to a new account (`newOwner`). Can only be called by the current owner."
      }
    },
    "version": 1
  },
  "userdoc": {
    "kind": "user",
    "methods": {},
    "version": 1
  },
  "storageLayout": {
    "storage": [
      {
        "astId": 251,
        "contract": "contracts/PulseChainArtNFT.sol:PulseChainArtNFT",
        "label": "_name",
        "offset": 0,
        "slot": "0",
        "type": "t_string_storage"
      },
      {
        "astId": 253,
        "contract": "contracts/PulseChainArtNFT.sol:PulseChainArtNFT",
        "label": "_symbol",
        "offset": 0,
        "slot": "1",
        "type": "t_string_storage"
      },
      {
        "astId": 257,
        "contract": "contracts/PulseChainArtNFT.sol:PulseChainArtNFT",
        "label": "_owners",
        "offset": 0,
        "slot": "2",
        "type": "t_mapping(t_uint256,t_address)"
      },
      {
        "astId": 261,
        "contract": "contracts/PulseChainArtNFT.sol:PulseChainArtNFT",
        "label": "_balances",
        "offset": 0,
        "slot": "3",
        "type": "t_mapping(t_address,t_uint256)"
      },
      {
        "astId": 265,
        "contract": "contracts/PulseChainArtNFT.sol:PulseChainArtNFT",
        "label": "_tokenApprovals",
        "offset": 0,
        "slot": "4",
        "type": "t_mapping(t_uint256,t_address)"
      },
      {
        "astId": 271,
        "contract": "contracts/PulseChainArtNFT.sol:PulseChainArtNFT",
        "label": "_operatorApprovals",
        "offset": 0,
        "slot": "5",
        "type": "t_mapping(t_address,t_mapping(t_address,t_bool))"
      },
      {
        "astId": 1238,
        "contract": "contracts/PulseChainArtNFT.sol:PulseChainArtNFT",
        "label": "_tokenURIs",
        "offset": 0,
        "slot": "6",
        "type": "t_mapping(t_uint256,t_string_storage)"
      },
      {
        "astId": 7,
        "contract": "contracts/PulseChainArtNFT.sol:PulseChainArtNFT",
        "label": "_owner",
        "offset": 0,
        "slot": "7",
        "type": "t_address"
      },
      {
        "astId": 118,
        "contract": "contracts/PulseChainArtNFT.sol:PulseChainArtNFT",
        "label": "_status",
        "offset": 0,
        "slot": "8",
        "type": "t_uint256"
      },
      {
        "astId": 2046,
        "contract": "contracts/PulseChainArtNFT.sol:PulseChainArtNFT",
        "label": "nextMintId",
        "offset": 0,
        "slot": "9",
        "type": "t_uint256"
      },
      {
        "astId": 2049,
        "contract": "contracts/PulseChainArtNFT.sol:PulseChainArtNFT",
        "label": "wlMintPrice",
        "offset": 0,
        "slot": "10",
        "type": "t_uint256"
      },
      {
        "astId": 2052,
        "contract": "contracts/PulseChainArtNFT.sol:PulseChainArtNFT",
        "label": "pMintPrice",
        "offset": 0,
        "slot": "11",
        "type": "t_uint256"
      },
      {
        "astId": 2055,
        "contract": "contracts/PulseChainArtNFT.sol:PulseChainArtNFT",
        "label": "currentURI",
        "offset": 0,
        "slot": "12",
        "type": "t_string_storage"
      },
      {
        "astId": 2057,
        "contract": "contracts/PulseChainArtNFT.sol:PulseChainArtNFT",
        "label": "wlMerkleRoot",
        "offset": 0,
        "slot": "13",
        "type": "t_bytes32"
      },
      {
        "astId": 2060,
        "contract": "contracts/PulseChainArtNFT.sol:PulseChainArtNFT",
        "label": "mintStep",
        "offset": 0,
        "slot": "14",
        "type": "t_uint256"
      },
      {
        "astId": 2063,
        "contract": "contracts/PulseChainArtNFT.sol:PulseChainArtNFT",
        "label": "totalSupply",
        "offset": 0,
        "slot": "15",
        "type": "t_uint256"
      },
      {
        "astId": 2066,
        "contract": "contracts/PulseChainArtNFT.sol:PulseChainArtNFT",
        "label": "isPaused",
        "offset": 0,
        "slot": "16",
        "type": "t_bool"
      },
      {
        "astId": 2070,
        "contract": "contracts/PulseChainArtNFT.sol:PulseChainArtNFT",
        "label": "isClaimed",
        "offset": 0,
        "slot": "17",
        "type": "t_mapping(t_address,t_bool)"
      }
    ],
    "types": {
      "t_address": {
        "encoding": "inplace",
        "label": "address",
        "numberOfBytes": "20"
      },
      "t_bool": {
        "encoding": "inplace",
        "label": "bool",
        "numberOfBytes": "1"
      },
      "t_bytes32": {
        "encoding": "inplace",
        "label": "bytes32",
        "numberOfBytes": "32"
      },
      "t_mapping(t_address,t_bool)": {
        "encoding": "mapping",
        "key": "t_address",
        "label": "mapping(address => bool)",
        "numberOfBytes": "32",
        "value": "t_bool"
      },
      "t_mapping(t_address,t_mapping(t_address,t_bool))": {
        "encoding": "mapping",
        "key": "t_address",
        "label": "mapping(address => mapping(address => bool))",
        "numberOfBytes": "32",
        "value": "t_mapping(t_address,t_bool)"
      },
      "t_mapping(t_address,t_uint256)": {
        "encoding": "mapping",
        "key": "t_address",
        "label": "mapping(address => uint256)",
        "numberOfBytes": "32",
        "value": "t_uint256"
      },
      "t_mapping(t_uint256,t_address)": {
        "encoding": "mapping",
        "key": "t_uint256",
        "label": "mapping(uint256 => address)",
        "numberOfBytes": "32",
        "value": "t_address"
      },
      "t_mapping(t_uint256,t_string_storage)": {
        "encoding": "mapping",
        "key": "t_uint256",
        "label": "mapping(uint256 => string)",
        "numberOfBytes": "32",
        "value": "t_string_storage"
      },
      "t_string_storage": {
        "encoding": "bytes",
        "label": "string",
        "numberOfBytes": "32"
      },
      "t_uint256": {
        "encoding": "inplace",
        "label": "uint256",
        "numberOfBytes": "32"
      }
    }
  }
}