{
  "address": "0x273e6347e5E887730D93bd306aAAD6D7cA88e750",
  "abi": [
    {
      "inputs": [
        {
          "internalType": "string",
          "name": "_name",
          "type": "string"
        },
        {
          "internalType": "string",
          "name": "_symbol",
          "type": "string"
        },
        {
          "internalType": "uint256",
          "name": "_totalSupply",
          "type": "uint256"
        },
        {
          "internalType": "string",
          "name": "_currentURI",
          "type": "string"
        },
        {
          "internalType": "address",
          "name": "_lockAddress",
          "type": "address"
        }
      ],
      "stateMutability": "nonpayable",
      "type": "constructor"
    },
    {
      "anonymous": false,
      "inputs": [
        {
          "indexed": true,
          "internalType": "address",
          "name": "owner",
          "type": "address"
        },
        {
          "indexed": true,
          "internalType": "address",
          "name": "approved",
          "type": "address"
        },
        {
          "indexed": true,
          "internalType": "uint256",
          "name": "tokenId",
          "type": "uint256"
        }
      ],
      "name": "Approval",
      "type": "event"
    },
    {
      "anonymous": false,
      "inputs": [
        {
          "indexed": true,
          "internalType": "address",
          "name": "owner",
          "type": "address"
        },
        {
          "indexed": true,
          "internalType": "address",
          "name": "operator",
          "type": "address"
        },
        {
          "indexed": false,
          "internalType": "bool",
          "name": "approved",
          "type": "bool"
        }
      ],
      "name": "ApprovalForAll",
      "type": "event"
    },
    {
      "anonymous": false,
      "inputs": [
        {
          "indexed": true,
          "internalType": "address",
          "name": "previousOwner",
          "type": "address"
        },
        {
          "indexed": true,
          "internalType": "address",
          "name": "newOwner",
          "type": "address"
        }
      ],
      "name": "OwnershipTransferred",
      "type": "event"
    },
    {
      "anonymous": false,
      "inputs": [
        {
          "indexed": true,
          "internalType": "address",
          "name": "from",
          "type": "address"
        },
        {
          "indexed": true,
          "internalType": "address",
          "name": "to",
          "type": "address"
        },
        {
          "indexed": true,
          "internalType": "uint256",
          "name": "tokenId",
          "type": "uint256"
        }
      ],
      "name": "Transfer",
      "type": "event"
    },
    {
      "inputs": [
        {
          "internalType": "address",
          "name": "to",
          "type": "address"
        },
        {
          "internalType": "uint256",
          "name": "tokenId",
          "type": "uint256"
        }
      ],
      "name": "approve",
      "outputs": [],
      "stateMutability": "nonpayable",
      "type": "function"
    },
    {
      "inputs": [
        {
          "internalType": "address",
          "name": "owner",
          "type": "address"
        }
      ],
      "name": "balanceOf",
      "outputs": [
        {
          "internalType": "uint256",
          "name": "",
          "type": "uint256"
        }
      ],
      "stateMutability": "view",
      "type": "function"
    },
    {
      "inputs": [],
      "name": "checkMintStatus",
      "outputs": [],
      "stateMutability": "nonpayable",
      "type": "function"
    },
    {
      "inputs": [],
      "name": "currentURI",
      "outputs": [
        {
          "internalType": "string",
          "name": "",
          "type": "string"
        }
      ],
      "stateMutability": "view",
      "type": "function"
    },
    {
      "inputs": [
        {
          "internalType": "uint256",
          "name": "tokenId",
          "type": "uint256"
        }
      ],
      "name": "getApproved",
      "outputs": [
        {
          "internalType": "address",
          "name": "",
          "type": "address"
        }
      ],
      "stateMutability": "view",
      "type": "function"
    },
    {
      "inputs": [
        {
          "internalType": "address",
          "name": "owner",
          "type": "address"
        },
        {
          "internalType": "address",
          "name": "operator",
          "type": "address"
        }
      ],
      "name": "isApprovedForAll",
      "outputs": [
        {
          "internalType": "bool",
          "name": "",
          "type": "bool"
        }
      ],
      "stateMutability": "view",
      "type": "function"
    },
    {
      "inputs": [
        {
          "internalType": "address",
          "name": "",
          "type": "address"
        }
      ],
      "name": "isClaimed",
      "outputs": [
        {
          "internalType": "bool",
          "name": "",
          "type": "bool"
        }
      ],
      "stateMutability": "view",
      "type": "function"
    },
    {
      "inputs": [],
      "name": "isPaused",
      "outputs": [
        {
          "internalType": "bool",
          "name": "",
          "type": "bool"
        }
      ],
      "stateMutability": "view",
      "type": "function"
    },
    {
      "inputs": [],
      "name": "mintStep",
      "outputs": [
        {
          "internalType": "uint256",
          "name": "",
          "type": "uint256"
        }
      ],
      "stateMutability": "view",
      "type": "function"
    },
    {
      "inputs": [],
      "name": "name",
      "outputs": [
        {
          "internalType": "string",
          "name": "",
          "type": "string"
        }
      ],
      "stateMutability": "view",
      "type": "function"
    },
    {
      "inputs": [],
      "name": "nextMintId",
      "outputs": [
        {
          "internalType": "uint256",
          "name": "",
          "type": "uint256"
        }
      ],
      "stateMutability": "view",
      "type": "function"
    },
    {
      "inputs": [],
      "name": "owner",
      "outputs": [
        {
          "internalType": "address",
          "name": "",
          "type": "address"
        }
      ],
      "stateMutability": "view",
      "type": "function"
    },
    {
      "inputs": [
        {
          "internalType": "uint256",
          "name": "tokenId",
          "type": "uint256"
        }
      ],
      "name": "ownerOf",
      "outputs": [
        {
          "internalType": "address",
          "name": "",
          "type": "address"
        }
      ],
      "stateMutability": "view",
      "type": "function"
    },
    {
      "inputs": [
        {
          "internalType": "uint256",
          "name": "_mintCount",
          "type": "uint256"
        }
      ],
      "name": "pMint",
      "outputs": [
        {
          "internalType": "uint256",
          "name": "",
          "type": "uint256"
        }
      ],
      "stateMutability": "payable",
      "type": "function"
    },
    {
      "inputs": [],
      "name": "pMintPrice",
      "outputs": [
        {
          "internalType": "uint256",
          "name": "",
          "type": "uint256"
        }
      ],
      "stateMutability": "view",
      "type": "function"
    },
    {
      "inputs": [],
      "name": "renounceOwnership",
      "outputs": [],
      "stateMutability": "nonpayable",
      "type": "function"
    },
    {
      "inputs": [
        {
          "internalType": "address",
          "name": "from",
          "type": "address"
        },
        {
          "internalType": "address",
          "name": "to",
          "type": "address"
        },
        {
          "internalType": "uint256",
          "name": "tokenId",
          "type": "uint256"
        }
      ],
      "name": "safeTransferFrom",
      "outputs": [],
      "stateMutability": "nonpayable",
      "type": "function"
    },
    {
      "inputs": [
        {
          "internalType": "address",
          "name": "from",
          "type": "address"
        },
        {
          "internalType": "address",
          "name": "to",
          "type": "address"
        },
        {
          "internalType": "uint256",
          "name": "tokenId",
          "type": "uint256"
        },
        {
          "internalType": "bytes",
          "name": "data",
          "type": "bytes"
        }
      ],
      "name": "safeTransferFrom",
      "outputs": [],
      "stateMutability": "nonpayable",
      "type": "function"
    },
    {
      "inputs": [
        {
          "internalType": "address",
          "name": "operator",
          "type": "address"
        },
        {
          "internalType": "bool",
          "name": "approved",
          "type": "bool"
        }
      ],
      "name": "setApprovalForAll",
      "outputs": [],
      "stateMutability": "nonpayable",
      "type": "function"
    },
    {
      "inputs": [
        {
          "internalType": "string",
          "name": "_currentURI",
          "type": "string"
        }
      ],
      "name": "setCurrentURI",
      "outputs": [],
      "stateMutability": "nonpayable",
      "type": "function"
    },
    {
      "inputs": [
        {
          "internalType": "uint256",
          "name": "_mintStep",
          "type": "uint256"
        }
      ],
      "name": "setMintStep",
      "outputs": [],
      "stateMutability": "nonpayable",
      "type": "function"
    },
    {
      "inputs": [
        {
          "internalType": "uint256",
          "name": "_price",
          "type": "uint256"
        }
      ],
      "name": "setPMintPrice",
      "outputs": [],
      "stateMutability": "nonpayable",
      "type": "function"
    },
    {
      "inputs": [
        {
          "internalType": "bool",
          "name": "_isPaused",
          "type": "bool"
        }
      ],
      "name": "setPaused",
      "outputs": [],
      "stateMutability": "nonpayable",
      "type": "function"
    },
    {
      "inputs": [
        {
          "internalType": "uint256",
          "name": "_totalSupply",
          "type": "uint256"
        }
      ],
      "name": "setTotalSupply",
      "outputs": [],
      "stateMutability": "nonpayable",
      "type": "function"
    },
    {
      "inputs": [
        {
          "internalType": "bytes32",
          "name": "merkleRoot",
          "type": "bytes32"
        }
      ],
      "name": "setWLMerkleRoot",
      "outputs": [],
      "stateMutability": "nonpayable",
      "type": "function"
    },
    {
      "inputs": [
        {
          "internalType": "uint256",
          "name": "_price",
          "type": "uint256"
        }
      ],
      "name": "setWLMintPrice",
      "outputs": [],
      "stateMutability": "nonpayable",
      "type": "function"
    },
    {
      "inputs": [
        {
          "internalType": "bytes4",
          "name": "interfaceId",
          "type": "bytes4"
        }
      ],
      "name": "supportsInterface",
      "outputs": [
        {
          "internalType": "bool",
          "name": "",
          "type": "bool"
        }
      ],
      "stateMutability": "view",
      "type": "function"
    },
    {
      "inputs": [],
      "name": "symbol",
      "outputs": [
        {
          "internalType": "string",
          "name": "",
          "type": "string"
        }
      ],
      "stateMutability": "view",
      "type": "function"
    },
    {
      "inputs": [
        {
          "internalType": "uint256",
          "name": "tokenId",
          "type": "uint256"
        }
      ],
      "name": "tokenURI",
      "outputs": [
        {
          "internalType": "string",
          "name": "",
          "type": "string"
        }
      ],
      "stateMutability": "view",
      "type": "function"
    },
    {
      "inputs": [],
      "name": "totalSupply",
      "outputs": [
        {
          "internalType": "uint256",
          "name": "",
          "type": "uint256"
        }
      ],
      "stateMutability": "view",
      "type": "function"
    },
    {
      "inputs": [
        {
          "internalType": "address",
          "name": "from",
          "type": "address"
        },
        {
          "internalType": "address",
          "name": "to",
          "type": "address"
        },
        {
          "internalType": "uint256",
          "name": "tokenId",
          "type": "uint256"
        }
      ],
      "name": "transferFrom",
      "outputs": [],
      "stateMutability": "nonpayable",
      "type": "function"
    },
    {
      "inputs": [
        {
          "internalType": "address",
          "name": "newOwner",
          "type": "address"
        }
      ],
      "name": "transferOwnership",
      "outputs": [],
      "stateMutability": "nonpayable",
      "type": "function"
    },
    {
      "inputs": [],
      "name": "withdraw",
      "outputs": [],
      "stateMutability": "nonpayable",
      "type": "function"
    },
    {
      "inputs": [],
      "name": "wlMerkleRoot",
      "outputs": [
        {
          "internalType": "bytes32",
          "name": "",
          "type": "bytes32"
        }
      ],
      "stateMutability": "view",
      "type": "function"
    },
    {
      "inputs": [
        {
          "internalType": "bytes32[]",
          "name": "_merkleProof",
          "type": "bytes32[]"
        }
      ],
      "name": "wlMint",
      "outputs": [
        {
          "internalType": "uint256",
          "name": "",
          "type": "uint256"
        }
      ],
      "stateMutability": "payable",
      "type": "function"
    },
    {
      "inputs": [],
      "name": "wlMintPrice",
      "outputs": [
        {
          "internalType": "uint256",
          "name": "",
          "type": "uint256"
        }
      ],
      "stateMutability": "view",
      "type": "function"
    }
  ],
  "transactionHash": "0xb3a3373e298ca5d1127ae376eaef4f026f887c04001bf6c4521ae112908e67f9",
  "args": [
    "PulseChainArt NFT",
    "PulseNFT",
    4444,
    "https://gateway.pinata.cloud/ipfs/QmSLVCN16kQVkZRWGW3ThfDk3kTWarZXqAhPLC8P9sfMbQ/",
    "0x1975596f42dFd09e25ce81ecF053D1F449412B56"
  ],
  "numDeployments": 1,
  "solcInputHash": "df3b5bf7e62271e39c4d3f50fe757b2d",
  "bytecode": "0x600880546001600160a01b031916731975596f42dfd09e25ce81ecf053d1f449412b561790556000600a556702c68af0bb140000600b55670429d069189e0000600c55610100604052605160808181529062002a5960a03980516200006d91600d91602090910190620001c1565b506103e8600f5561115c6010556011805460ff191690553480156200009157600080fd5b5060405162002aaa38038062002aaa833981016040819052620000b49162000334565b845185908590620000cd906000906020850190620001c1565b508051620000e3906001906020840190620001c1565b50505062000100620000fa6200015260201b60201c565b62000156565b60016009556200011082620001a8565b6200011a83601055565b6011805460ff1916600117905560118054610100600160a81b0319166101006001600160a01b03841602179055505050505062000430565b3390565b600780546001600160a01b038381166001600160a01b0319831681179093556040519116919082907f8be0079c531659141344cd1fd0a4f28419497f9722a3daafe3b4186f6b6457e090600090a35050565b8051620001bd90600d906020840190620001c1565b5050565b828054620001cf90620003f3565b90600052602060002090601f016020900481019282620001f357600085556200023e565b82601f106200020e57805160ff19168380011785556200023e565b828001600101855582156200023e579182015b828111156200023e57825182559160200191906001019062000221565b506200024c92915062000250565b5090565b5b808211156200024c576000815560010162000251565b634e487b7160e01b600052604160045260246000fd5b600082601f8301126200028f57600080fd5b81516001600160401b0380821115620002ac57620002ac62000267565b604051601f8301601f19908116603f01168101908282118183101715620002d757620002d762000267565b81604052838152602092508683858801011115620002f457600080fd5b600091505b83821015620003185785820183015181830184015290820190620002f9565b838211156200032a5760008385830101525b9695505050505050565b600080600080600060a086880312156200034d57600080fd5b85516001600160401b03808211156200036557600080fd5b6200037389838a016200027d565b965060208801519150808211156200038a57600080fd5b6200039889838a016200027d565b9550604088015194506060880151915080821115620003b657600080fd5b50620003c5888289016200027d565b608088015190935090506001600160a01b0381168114620003e557600080fd5b809150509295509295909350565b600181811c908216806200040857607f821691505b602082108114156200042a57634e487b7160e01b600052602260045260246000fd5b50919050565b61261980620004406000396000f3fe60806040526004361061024f5760003560e01c80637d44fd1111610138578063b187bd26116100b0578063e1e62b021161007f578063f2fde38b11610064578063f2fde38b14610662578063f7ea7a3d14610682578063fb0bc9d7146106a257600080fd5b8063e1e62b02146105f9578063e985e9c51461061957600080fd5b8063b187bd261461057f578063b473171614610599578063b88d4fde146105b9578063c87b56dd146105d957600080fd5b80638faeb78f116101075780639ccbcaac116100ec5780639ccbcaac14610536578063a22cb4651461054c578063b0ea7dcf1461056c57600080fd5b80638faeb78f1461050b57806395d89b411461052157600080fd5b80637d44fd111461047d578063894b344c1461049d5780638cc08025146104bd5780638da5cb5b146104ed57600080fd5b80633ccfd60b116101cb5780636352211e1161019a57806370a082311161017f57806370a0823114610435578063710ea3dd14610455578063715018a61461046857600080fd5b80636352211e146103ff5780636aa99da31461041f57600080fd5b80633ccfd60b1461039f57806342842e0e146103b457806351212686146103d457806354c06aee146103e957600080fd5b80630a99ea981161022257806318160ddd1161020757806318160ddd1461034557806323b872dd146103695780632c4e9fc61461038957600080fd5b80630a99ea981461030557806316c38b3c1461032557600080fd5b806301ffc9a71461025457806306fdde0314610289578063081812fc146102ab578063095ea7b3146102e3575b600080fd5b34801561026057600080fd5b5061027461026f366004612027565b6106b7565b60405190151581526020015b60405180910390f35b34801561029557600080fd5b5061029e610709565b604051610280919061209c565b3480156102b757600080fd5b506102cb6102c63660046120af565b61079b565b6040516001600160a01b039091168152602001610280565b3480156102ef57600080fd5b506103036102fe3660046120e4565b6107c2565b005b34801561031157600080fd5b506103036103203660046120af565b6108dd565b34801561033157600080fd5b5061030361034036600461211e565b6108ea565b34801561035157600080fd5b5061035b60105481565b604051908152602001610280565b34801561037557600080fd5b50610303610384366004612139565b610906565b34801561039557600080fd5b5061035b600b5481565b3480156103ab57600080fd5b5061030361097e565b3480156103c057600080fd5b506103036103cf366004612139565b610a36565b3480156103e057600080fd5b50610303610a51565b3480156103f557600080fd5b5061035b600e5481565b34801561040b57600080fd5b506102cb61041a3660046120af565b610a88565b34801561042b57600080fd5b5061035b600a5481565b34801561044157600080fd5b5061035b610450366004612175565b610aed565b61035b6104633660046120af565b610b87565b34801561047457600080fd5b50610303610cf4565b34801561048957600080fd5b506103036104983660046120af565b610d08565b3480156104a957600080fd5b506103036104b83660046120af565b610d15565b3480156104c957600080fd5b506102746104d8366004612175565b60126020526000908152604090205460ff1681565b3480156104f957600080fd5b506007546001600160a01b03166102cb565b34801561051757600080fd5b5061035b600f5481565b34801561052d57600080fd5b5061029e610d26565b34801561054257600080fd5b5061035b600c5481565b34801561055857600080fd5b50610303610567366004612190565b610d35565b61035b61057a3660046121c3565b610d40565b34801561058b57600080fd5b506011546102749060ff1681565b3480156105a557600080fd5b506103036105b43660046122c4565b610fb6565b3480156105c557600080fd5b506103036105d436600461230d565b610fc7565b3480156105e557600080fd5b5061029e6105f43660046120af565b611046565b34801561060557600080fd5b506103036106143660046120af565b611157565b34801561062557600080fd5b50610274610634366004612389565b6001600160a01b03918216600090815260056020908152604080832093909416825291909152205460ff1690565b34801561066e57600080fd5b5061030361067d366004612175565b611164565b34801561068e57600080fd5b5061030361069d3660046120af565b6111f1565b3480156106ae57600080fd5b5061029e611202565b60006001600160e01b031982166380ac58cd60e01b14806106e857506001600160e01b03198216635b5e139f60e01b145b8061070357506301ffc9a760e01b6001600160e01b03198316145b92915050565b606060008054610718906123b3565b80601f0160208091040260200160405190810160405280929190818152602001828054610744906123b3565b80156107915780601f1061076657610100808354040283529160200191610791565b820191906000526020600020905b81548152906001019060200180831161077457829003601f168201915b5050505050905090565b60006107a682611290565b506000908152600460205260409020546001600160a01b031690565b60006107cd82610a88565b9050806001600160a01b0316836001600160a01b031614156108405760405162461bcd60e51b815260206004820152602160248201527f4552433732313a20617070726f76616c20746f2063757272656e74206f776e656044820152603960f91b60648201526084015b60405180910390fd5b336001600160a01b038216148061085c575061085c8133610634565b6108ce5760405162461bcd60e51b815260206004820152603e60248201527f4552433732313a20617070726f76652063616c6c6572206973206e6f7420746f60448201527f6b656e206f776e6572206e6f7220617070726f76656420666f7220616c6c00006064820152608401610837565b6108d883836112f4565b505050565b6108e5611362565b600c55565b6108f2611362565b6011805460ff191682151517905550565b50565b61091033826113da565b6109735760405162461bcd60e51b815260206004820152602e60248201527f4552433732313a2063616c6c6572206973206e6f7420746f6b656e206f776e6560448201526d1c881b9bdc88185c1c1c9bdd995960921b6064820152608401610837565b6108d8838383611458565b610986611362565b476801158e460913d000008111610a055760405162461bcd60e51b815260206004820152603960248201527f596f752073686f756c64207769746864726177207468652062616c616e63652060448201527f7768656e20697420686173206f766572203230206574686572000000000000006064820152608401610837565b604051339082156108fc029083906000818181858888f19350505050158015610a32573d6000803e3d6000fd5b5050565b6108d883838360405180602001604052806000815250610fc7565b610a5961160c565b6040514790339082156108fc029083906000818181858888f19350505050158015610a32573d6000803e3d6000fd5b6000818152600260205260408120546001600160a01b0316806107035760405162461bcd60e51b815260206004820152601860248201527f4552433732313a20696e76616c696420746f6b656e20494400000000000000006044820152606401610837565b60006001600160a01b038216610b6b5760405162461bcd60e51b815260206004820152602960248201527f4552433732313a2061646472657373207a65726f206973206e6f74206120766160448201527f6c6964206f776e657200000000000000000000000000000000000000000000006064820152608401610837565b506001600160a01b031660009081526003602052604090205490565b60115460009060ff1615610c0e5760405162461bcd60e51b815260206004820152604260248201527f4572726f723a20596f7520617265206e6f7420616c6c6f77656420746f206d6960448201527f6e7420756e74696c20746865206f776e657220737461727473204d696e74696e606482015261672160f01b608482015260a401610837565b600c548234610c1d8284612404565b1115610c775760405162461bcd60e51b815260206004820152602360248201527f4572726f723a2053656e74204554482076616c756520697320494e434f52524560448201526243542160e81b6064820152608401610837565b60026009541415610cca5760405162461bcd60e51b815260206004820152601f60248201527f5265656e7472616e637947756172643a207265656e7472616e742063616c6c006044820152606401610837565b6002600955610cd88461167a565b6001600a54610ce79190612423565b6001600955949350505050565b610cfc611362565b610d0660006117e1565b565b610d10611362565b600e55565b610d1d611362565b61090381600f55565b606060018054610718906123b3565b610a32338383611833565b60115460009060ff1615610dc75760405162461bcd60e51b815260206004820152604260248201527f4572726f723a20596f7520617265206e6f7420616c6c6f77656420746f206d6960448201527f6e7420756e74696c20746865206f776e657220737461727473204d696e74696e606482015261672160f01b608482015260a401610837565b600b54600134610dd78284612404565b1115610e315760405162461bcd60e51b815260206004820152602360248201527f4572726f723a2053656e74204554482076616c756520697320494e434f52524560448201526243542160e81b6064820152608401610837565b8484610ea882828080602002602001604051908101604052809392919081815260200183836020028082843760009201919091525050600e546040516bffffffffffffffffffffffff193360601b166020820152909250603401905060405160208183030381529060405280519060200120611902565b610f1a5760405162461bcd60e51b815260206004820152602660248201527f4572726f723a2041646472657373206973204e4f542077686974656c6973746560448201527f64207965742100000000000000000000000000000000000000000000000000006064820152608401610837565b60026009541415610f6d5760405162461bcd60e51b815260206004820152601f60248201527f5265656e7472616e637947756172643a207265656e7472616e742063616c6c006044820152606401610837565b6002600955610f7c600161167a565b336000908152601260205260409020805460ff19166001908117909155600a54610fa69190612423565b6001600955979650505050505050565b610fbe611362565b61090381611918565b610fd133836113da565b6110345760405162461bcd60e51b815260206004820152602e60248201527f4552433732313a2063616c6c6572206973206e6f7420746f6b656e206f776e6560448201526d1c881b9bdc88185c1c1c9bdd995960921b6064820152608401610837565b6110408484848461192b565b50505050565b606061105182611290565b6000828152600660205260408120805461106a906123b3565b80601f0160208091040260200160405190810160405280929190818152602001828054611096906123b3565b80156110e35780601f106110b8576101008083540402835291602001916110e3565b820191906000526020600020905b8154815290600101906020018083116110c657829003601f168201915b50505050509050600061110160408051602081019091526000815290565b9050805160001415611114575092915050565b81511561114657808260405160200161112e929190612456565b60405160208183030381529060405292505050919050565b61114f846119a9565b949350505050565b61115f611362565b600b55565b61116c611362565b6001600160a01b0381166111e85760405162461bcd60e51b815260206004820152602660248201527f4f776e61626c653a206e6577206f776e657220697320746865207a65726f206160448201527f64647265737300000000000000000000000000000000000000000000000000006064820152608401610837565b610903816117e1565b6111f9611362565b61090381601055565b600d805461120f906123b3565b80601f016020809104026020016040519081016040528092919081815260200182805461123b906123b3565b80156112885780601f1061125d57610100808354040283529160200191611288565b820191906000526020600020905b81548152906001019060200180831161126b57829003601f168201915b505050505081565b6000818152600260205260409020546001600160a01b03166109035760405162461bcd60e51b815260206004820152601860248201527f4552433732313a20696e76616c696420746f6b656e20494400000000000000006044820152606401610837565b600081815260046020526040902080546001600160a01b0319166001600160a01b038416908117909155819061132982610a88565b6001600160a01b03167f8c5be1e5ebec7d5bd14f71427d1e84f3dd0314c0f7b2291e5b200ac8c7c3b92560405160405180910390a45050565b6007546001600160a01b031633148061138e57506008546001600160a01b0316336001600160a01b0316145b610d065760405162461bcd60e51b815260206004820181905260248201527f4f776e61626c653a2063616c6c6572206973206e6f7420746865206f776e65726044820152606401610837565b6000806113e683610a88565b9050806001600160a01b0316846001600160a01b0316148061142d57506001600160a01b0380821660009081526005602090815260408083209388168352929052205460ff165b8061114f5750836001600160a01b03166114468461079b565b6001600160a01b031614949350505050565b826001600160a01b031661146b82610a88565b6001600160a01b0316146114e75760405162461bcd60e51b815260206004820152602560248201527f4552433732313a207472616e736665722066726f6d20696e636f72726563742060448201527f6f776e65720000000000000000000000000000000000000000000000000000006064820152608401610837565b6001600160a01b0382166115495760405162461bcd60e51b8152602060048201526024808201527f4552433732313a207472616e7366657220746f20746865207a65726f206164646044820152637265737360e01b6064820152608401610837565b6115546000826112f4565b6001600160a01b038316600090815260036020526040812080546001929061157d908490612423565b90915550506001600160a01b03821660009081526003602052604081208054600192906115ab908490612485565b909155505060008181526002602052604080822080546001600160a01b0319166001600160a01b0386811691821790925591518493918716917fddf252ad1be2c89b69c2b068fc378daa952ba7f163c4a11628f55a4df523b3ef91a4505050565b6008546001600160a01b0316336001600160a01b031614610d065760405162461bcd60e51b815260206004820152602260248201527f4d696e7461626c653a2063616c6c6572206973206e6f7420746865204d696e7460448201526132b960f11b6064820152608401610837565b601054600182600a5461168d9190612485565b6116979190612423565b106116e45760405162461bcd60e51b815260206004820152601660248201527f4572726f723a20537570706c79206c696d6974656421000000000000000000006044820152606401610837565b60115460ff16156117375760405162461bcd60e51b815260206004820152601860248201527f4572726f723a204d696e74696e672069732050617573656400000000000000006044820152606401610837565b60005b818110156117ac57600a5461174f3382611a1d565b61178381600d61175e84611a37565b60405160200161176f92919061249d565b604051602081830303815290604052611b4d565b600a805490600061179383612544565b91905055505080806117a490612544565b91505061173a565b50601054600a5414806117cc5750600f54600a546117ca9190612575565b155b15610903576011805460ff1916600117905550565b600780546001600160a01b038381166001600160a01b0319831681179093556040519116919082907f8be0079c531659141344cd1fd0a4f28419497f9722a3daafe3b4186f6b6457e090600090a35050565b816001600160a01b0316836001600160a01b031614156118955760405162461bcd60e51b815260206004820152601960248201527f4552433732313a20617070726f766520746f2063616c6c6572000000000000006044820152606401610837565b6001600160a01b03838116600081815260056020908152604080832094871680845294825291829020805460ff191686151590811790915591519182527f17307eab39ab6107e8899845ad3d59bd9653f200f220920489ca2b5937696c31910160405180910390a3505050565b60008261190f8584611bf6565b14949350505050565b8051610a3290600d906020840190611f78565b611936848484611458565b61194284848484611c43565b6110405760405162461bcd60e51b815260206004820152603260248201527f4552433732313a207472616e7366657220746f206e6f6e20455243373231526560448201527131b2b4bb32b91034b6b83632b6b2b73a32b960711b6064820152608401610837565b60606119b482611290565b60006119cb60408051602081019091526000815290565b905060008151116119eb5760405180602001604052806000815250611a16565b806119f584611a37565b604051602001611a06929190612456565b6040516020818303038152906040525b9392505050565b610a32828260405180602001604052806000815250611d8c565b606081611a5b5750506040805180820190915260018152600360fc1b602082015290565b8160005b8115611a855780611a6f81612544565b9150611a7e9050600a83612589565b9150611a5f565b60008167ffffffffffffffff811115611aa057611aa0612238565b6040519080825280601f01601f191660200182016040528015611aca576020820181803683370190505b5090505b841561114f57611adf600183612423565b9150611aec600a86612575565b611af7906030612485565b60f81b818381518110611b0c57611b0c61259d565b60200101907effffffffffffffffffffffffffffffffffffffffffffffffffffffffffffff1916908160001a905350611b46600a86612589565b9450611ace565b6000828152600260205260409020546001600160a01b0316611bd75760405162461bcd60e51b815260206004820152602e60248201527f45524337323155524953746f726167653a2055524920736574206f66206e6f6e60448201527f6578697374656e7420746f6b656e0000000000000000000000000000000000006064820152608401610837565b600082815260066020908152604090912082516108d892840190611f78565b600081815b8451811015611c3b57611c2782868381518110611c1a57611c1a61259d565b6020026020010151611e0a565b915080611c3381612544565b915050611bfb565b509392505050565b60006001600160a01b0384163b15611d8157604051630a85bd0160e11b81526001600160a01b0385169063150b7a0290611c879033908990889088906004016125b3565b6020604051808303816000875af1925050508015611cc2575060408051601f3d908101601f19168201909252611cbf918101906125ef565b60015b611d67573d808015611cf0576040519150601f19603f3d011682016040523d82523d6000602084013e611cf5565b606091505b508051611d5f5760405162461bcd60e51b815260206004820152603260248201527f4552433732313a207472616e7366657220746f206e6f6e20455243373231526560448201527131b2b4bb32b91034b6b83632b6b2b73a32b960711b6064820152608401610837565b805181602001fd5b6001600160e01b031916630a85bd0160e11b14905061114f565b506001949350505050565b611d968383611e36565b611da36000848484611c43565b6108d85760405162461bcd60e51b815260206004820152603260248201527f4552433732313a207472616e7366657220746f206e6f6e20455243373231526560448201527131b2b4bb32b91034b6b83632b6b2b73a32b960711b6064820152608401610837565b6000818310611e26576000828152602084905260409020611a16565b5060009182526020526040902090565b6001600160a01b038216611e8c5760405162461bcd60e51b815260206004820181905260248201527f4552433732313a206d696e7420746f20746865207a65726f20616464726573736044820152606401610837565b6000818152600260205260409020546001600160a01b031615611ef15760405162461bcd60e51b815260206004820152601c60248201527f4552433732313a20746f6b656e20616c7265616479206d696e746564000000006044820152606401610837565b6001600160a01b0382166000908152600360205260408120805460019290611f1a908490612485565b909155505060008181526002602052604080822080546001600160a01b0319166001600160a01b03861690811790915590518392907fddf252ad1be2c89b69c2b068fc378daa952ba7f163c4a11628f55a4df523b3ef908290a45050565b828054611f84906123b3565b90600052602060002090601f016020900481019282611fa65760008555611fec565b82601f10611fbf57805160ff1916838001178555611fec565b82800160010185558215611fec579182015b82811115611fec578251825591602001919060010190611fd1565b50611ff8929150611ffc565b5090565b5b80821115611ff85760008155600101611ffd565b6001600160e01b03198116811461090357600080fd5b60006020828403121561203957600080fd5b8135611a1681612011565b60005b8381101561205f578181015183820152602001612047565b838111156110405750506000910152565b60008151808452612088816020860160208601612044565b601f01601f19169290920160200192915050565b602081526000611a166020830184612070565b6000602082840312156120c157600080fd5b5035919050565b80356001600160a01b03811681146120df57600080fd5b919050565b600080604083850312156120f757600080fd5b612100836120c8565b946020939093013593505050565b803580151581146120df57600080fd5b60006020828403121561213057600080fd5b611a168261210e565b60008060006060848603121561214e57600080fd5b612157846120c8565b9250612165602085016120c8565b9150604084013590509250925092565b60006020828403121561218757600080fd5b611a16826120c8565b600080604083850312156121a357600080fd5b6121ac836120c8565b91506121ba6020840161210e565b90509250929050565b600080602083850312156121d657600080fd5b823567ffffffffffffffff808211156121ee57600080fd5b818501915085601f83011261220257600080fd5b81358181111561221157600080fd5b8660208260051b850101111561222657600080fd5b60209290920196919550909350505050565b634e487b7160e01b600052604160045260246000fd5b600067ffffffffffffffff8084111561226957612269612238565b604051601f8501601f19908116603f0116810190828211818310171561229157612291612238565b816040528093508581528686860111156122aa57600080fd5b858560208301376000602087830101525050509392505050565b6000602082840312156122d657600080fd5b813567ffffffffffffffff8111156122ed57600080fd5b8201601f810184136122fe57600080fd5b61114f8482356020840161224e565b6000806000806080858703121561232357600080fd5b61232c856120c8565b935061233a602086016120c8565b925060408501359150606085013567ffffffffffffffff81111561235d57600080fd5b8501601f8101871361236e57600080fd5b61237d8782356020840161224e565b91505092959194509250565b6000806040838503121561239c57600080fd5b6123a5836120c8565b91506121ba602084016120c8565b600181811c908216806123c757607f821691505b602082108114156123e857634e487b7160e01b600052602260045260246000fd5b50919050565b634e487b7160e01b600052601160045260246000fd5b600081600019048311821515161561241e5761241e6123ee565b500290565b600082821015612435576124356123ee565b500390565b6000815161244c818560208601612044565b9290920192915050565b60008351612468818460208801612044565b83519083019061247c818360208801612044565b01949350505050565b60008219821115612498576124986123ee565b500190565b600080845481600182811c9150808316806124b957607f831692505b60208084108214156124d957634e487b7160e01b86526022600452602486fd5b8180156124ed57600181146124fe5761252b565b60ff1986168952848901965061252b565b60008b81526020902060005b868110156125235781548b82015290850190830161250a565b505084890196505b50505050505061253b818561243a565b95945050505050565b6000600019821415612558576125586123ee565b5060010190565b634e487b7160e01b600052601260045260246000fd5b6000826125845761258461255f565b500690565b6000826125985761259861255f565b500490565b634e487b7160e01b600052603260045260246000fd5b60006001600160a01b038087168352808616602084015250836040830152608060608301526125e56080830184612070565b9695505050505050565b60006020828403121561260157600080fd5b8151611a168161201156fea164736f6c634300080a000a68747470733a2f2f676174657761792e70696e6174612e636c6f75642f697066732f516d534c56434e31366b51566b5a5257475733546866446b336b545761725a58714168504c4338503973664d62512f",
  "devdoc": {
    "kind": "dev",
    "methods": {
      "approve(address,uint256)": {
        "details": "See {IERC721-approve}."
      },
      "balanceOf(address)": {
        "details": "See {IERC721-balanceOf}."
      },
      "getApproved(uint256)": {
        "details": "See {IERC721-getApproved}."
      },
      "isApprovedForAll(address,address)": {
        "details": "See {IERC721-isApprovedForAll}."
      },
      "name()": {
        "details": "See {IERC721Metadata-name}."
      },
      "owner()": {
        "details": "Returns the address of the current owner."
      },
      "ownerOf(uint256)": {
        "details": "See {IERC721-ownerOf}."
      },
      "renounceOwnership()": {
        "details": "Leaves the contract without owner. It will not be possible to call `onlyOwner` functions anymore. Can only be called by the current owner. NOTE: Renouncing ownership will leave the contract without an owner, thereby removing any functionality that is only available to the owner."
      },
      "safeTransferFrom(address,address,uint256)": {
        "details": "See {IERC721-safeTransferFrom}."
      },
      "safeTransferFrom(address,address,uint256,bytes)": {
        "details": "See {IERC721-safeTransferFrom}."
      },
      "setApprovalForAll(address,bool)": {
        "details": "See {IERC721-setApprovalForAll}."
      },
      "supportsInterface(bytes4)": {
        "details": "See {IERC165-supportsInterface}."
      },
      "symbol()": {
        "details": "See {IERC721Metadata-symbol}."
      },
      "tokenURI(uint256)": {
        "details": "See {IERC721Metadata-tokenURI}."
      },
      "transferFrom(address,address,uint256)": {
        "details": "See {IERC721-transferFrom}."
      },
      "transferOwnership(address)": {
        "details": "Transfers ownership of the contract to a new account (`newOwner`). Can only be called by the current owner."
      }
    },
    "version": 1
  },
  "userdoc": {
    "kind": "user",
    "methods": {},
    "version": 1
  },
  "storageLayout": {
    "storage": [
      {
        "astId": 286,
        "contract": "contracts/PulseChainArtNFT.sol:PulseChainArtNFT",
        "label": "_name",
        "offset": 0,
        "slot": "0",
        "type": "t_string_storage"
      },
      {
        "astId": 288,
        "contract": "contracts/PulseChainArtNFT.sol:PulseChainArtNFT",
        "label": "_symbol",
        "offset": 0,
        "slot": "1",
        "type": "t_string_storage"
      },
      {
        "astId": 292,
        "contract": "contracts/PulseChainArtNFT.sol:PulseChainArtNFT",
        "label": "_owners",
        "offset": 0,
        "slot": "2",
        "type": "t_mapping(t_uint256,t_address)"
      },
      {
        "astId": 296,
        "contract": "contracts/PulseChainArtNFT.sol:PulseChainArtNFT",
        "label": "_balances",
        "offset": 0,
        "slot": "3",
        "type": "t_mapping(t_address,t_uint256)"
      },
      {
        "astId": 300,
        "contract": "contracts/PulseChainArtNFT.sol:PulseChainArtNFT",
        "label": "_tokenApprovals",
        "offset": 0,
        "slot": "4",
        "type": "t_mapping(t_uint256,t_address)"
      },
      {
        "astId": 306,
        "contract": "contracts/PulseChainArtNFT.sol:PulseChainArtNFT",
        "label": "_operatorApprovals",
        "offset": 0,
        "slot": "5",
        "type": "t_mapping(t_address,t_mapping(t_address,t_bool))"
      },
      {
        "astId": 1274,
        "contract": "contracts/PulseChainArtNFT.sol:PulseChainArtNFT",
        "label": "_tokenURIs",
        "offset": 0,
        "slot": "6",
        "type": "t_mapping(t_uint256,t_string_storage)"
      },
      {
        "astId": 7,
        "contract": "contracts/PulseChainArtNFT.sol:PulseChainArtNFT",
        "label": "_owner",
        "offset": 0,
        "slot": "7",
        "type": "t_address"
      },
      {
        "astId": 10,
        "contract": "contracts/PulseChainArtNFT.sol:PulseChainArtNFT",
        "label": "_mintAddress",
        "offset": 0,
        "slot": "8",
        "type": "t_address"
      },
      {
        "astId": 153,
        "contract": "contracts/PulseChainArtNFT.sol:PulseChainArtNFT",
        "label": "_status",
        "offset": 0,
        "slot": "9",
        "type": "t_uint256"
      },
      {
        "astId": 2511,
        "contract": "contracts/PulseChainArtNFT.sol:PulseChainArtNFT",
        "label": "nextMintId",
        "offset": 0,
        "slot": "10",
        "type": "t_uint256"
      },
      {
        "astId": 2514,
        "contract": "contracts/PulseChainArtNFT.sol:PulseChainArtNFT",
        "label": "wlMintPrice",
        "offset": 0,
        "slot": "11",
        "type": "t_uint256"
      },
      {
        "astId": 2517,
        "contract": "contracts/PulseChainArtNFT.sol:PulseChainArtNFT",
        "label": "pMintPrice",
        "offset": 0,
        "slot": "12",
        "type": "t_uint256"
      },
      {
        "astId": 2520,
        "contract": "contracts/PulseChainArtNFT.sol:PulseChainArtNFT",
        "label": "currentURI",
        "offset": 0,
        "slot": "13",
        "type": "t_string_storage"
      },
      {
        "astId": 2522,
        "contract": "contracts/PulseChainArtNFT.sol:PulseChainArtNFT",
        "label": "wlMerkleRoot",
        "offset": 0,
        "slot": "14",
        "type": "t_bytes32"
      },
      {
        "astId": 2525,
        "contract": "contracts/PulseChainArtNFT.sol:PulseChainArtNFT",
        "label": "mintStep",
        "offset": 0,
        "slot": "15",
        "type": "t_uint256"
      },
      {
        "astId": 2528,
        "contract": "contracts/PulseChainArtNFT.sol:PulseChainArtNFT",
        "label": "totalSupply",
        "offset": 0,
        "slot": "16",
        "type": "t_uint256"
      },
      {
        "astId": 2531,
        "contract": "contracts/PulseChainArtNFT.sol:PulseChainArtNFT",
        "label": "isPaused",
        "offset": 0,
        "slot": "17",
        "type": "t_bool"
      },
      {
        "astId": 2533,
        "contract": "contracts/PulseChainArtNFT.sol:PulseChainArtNFT",
        "label": "lockAddress",
        "offset": 1,
        "slot": "17",
        "type": "t_address"
      },
      {
        "astId": 2537,
        "contract": "contracts/PulseChainArtNFT.sol:PulseChainArtNFT",
        "label": "isClaimed",
        "offset": 0,
        "slot": "18",
        "type": "t_mapping(t_address,t_bool)"
      }
    ],
    "types": {
      "t_address": {
        "encoding": "inplace",
        "label": "address",
        "numberOfBytes": "20"
      },
      "t_bool": {
        "encoding": "inplace",
        "label": "bool",
        "numberOfBytes": "1"
      },
      "t_bytes32": {
        "encoding": "inplace",
        "label": "bytes32",
        "numberOfBytes": "32"
      },
      "t_mapping(t_address,t_bool)": {
        "encoding": "mapping",
        "key": "t_address",
        "label": "mapping(address => bool)",
        "numberOfBytes": "32",
        "value": "t_bool"
      },
      "t_mapping(t_address,t_mapping(t_address,t_bool))": {
        "encoding": "mapping",
        "key": "t_address",
        "label": "mapping(address => mapping(address => bool))",
        "numberOfBytes": "32",
        "value": "t_mapping(t_address,t_bool)"
      },
      "t_mapping(t_address,t_uint256)": {
        "encoding": "mapping",
        "key": "t_address",
        "label": "mapping(address => uint256)",
        "numberOfBytes": "32",
        "value": "t_uint256"
      },
      "t_mapping(t_uint256,t_address)": {
        "encoding": "mapping",
        "key": "t_uint256",
        "label": "mapping(uint256 => address)",
        "numberOfBytes": "32",
        "value": "t_address"
      },
      "t_mapping(t_uint256,t_string_storage)": {
        "encoding": "mapping",
        "key": "t_uint256",
        "label": "mapping(uint256 => string)",
        "numberOfBytes": "32",
        "value": "t_string_storage"
      },
      "t_string_storage": {
        "encoding": "bytes",
        "label": "string",
        "numberOfBytes": "32"
      },
      "t_uint256": {
        "encoding": "inplace",
        "label": "uint256",
        "numberOfBytes": "32"
      }
    }
  }
}